{
  "_format": "hh-sol-artifact-1",
  "contractName": "Counter",
  "sourceName": "contracts/Counter.sol",
  "abi": [
    {
      "inputs": [
        {
          "internalType": "string",
          "name": "_initialName",
          "type": "string"
        }
      ],
      "stateMutability": "nonpayable",
      "type": "constructor"
    },
    {
      "anonymous": false,
      "inputs": [
        {
          "indexed": false,
          "internalType": "address",
          "name": "winner",
          "type": "address"
        },
        {
          "indexed": false,
          "internalType": "uint256",
          "name": "count",
          "type": "uint256"
        }
      ],
      "name": "Congratulations",
      "type": "event"
    },
    {
      "inputs": [],
      "name": "count",
      "outputs": [
        {
          "internalType": "uint256",
          "name": "",
          "type": "uint256"
        }
      ],
      "stateMutability": "view",
      "type": "function"
    },
    {
      "inputs": [],
      "name": "decrement",
      "outputs": [],
      "stateMutability": "nonpayable",
      "type": "function"
    },
    {
      "inputs": [],
      "name": "getCount",
      "outputs": [
        {
          "internalType": "uint256",
          "name": "",
          "type": "uint256"
        }
      ],
      "stateMutability": "view",
      "type": "function"
    },
    {
      "inputs": [],
      "name": "increment",
      "outputs": [],
      "stateMutability": "nonpayable",
      "type": "function"
    },
    {
      "inputs": [],
      "name": "ownerName",
      "outputs": [
        {
          "internalType": "string",
          "name": "",
          "type": "string"
        }
      ],
      "stateMutability": "view",
      "type": "function"
    },
    {
      "inputs": [],
      "name": "reset",
      "outputs": [],
      "stateMutability": "nonpayable",
      "type": "function"
    }
  ],
  "bytecode": "0x608060405234801561001057600080fd5b50604051610ecf380380610ecf83398181016040528101906100329190610379565b60008081905550806001908161004891906105e3565b506100fb6040518060600160405280602e8152602001610ea1602e913960018054610072906103fc565b80601f016020809104026020016040519081016040528092919081815260200182805461009e906103fc565b80156100eb5780601f106100c0576101008083540402835291602001916100eb565b820191906000526020600020905b8154815290600101906020018083116100ce57829003601f168201915b505050505061010160201b60201c565b50610765565b61019f82826040516024016101179291906106ff565b6040516020818303038152906040527f4b5c4277000000000000000000000000000000000000000000000000000000007bffffffffffffffffffffffffffffffffffffffffffffffffffffffff19166020820180517bffffffffffffffffffffffffffffffffffffffffffffffffffffffff83818316178352505050506101a360201b60201c565b5050565b6101c4816101bf6101c760201b6102cc176101e860201b60201c565b60201c565b50565b60006a636f6e736f6c652e6c6f679050600080835160208501845afa505050565b6101fa60201b61044717819050919050565b610202610736565b565b6000604051905090565b600080fd5b600080fd5b600080fd5b600080fd5b6000601f19601f8301169050919050565b7f4e487b7100000000000000000000000000000000000000000000000000000000600052604160045260246000fd5b61026b82610222565b810181811067ffffffffffffffff8211171561028a57610289610233565b5b80604052505050565b600061029d610204565b90506102a98282610262565b919050565b600067ffffffffffffffff8211156102c9576102c8610233565b5b6102d282610222565b9050602081019050919050565b60005b838110156102fd5780820151818401526020810190506102e2565b60008484015250505050565b600061031c610317846102ae565b610293565b9050828152602081018484840111156103385761033761021d565b5b6103438482856102df565b509392505050565b600082601f8301126103605761035f610218565b5b8151610370848260208601610309565b91505092915050565b60006020828403121561038f5761038e61020e565b5b600082015167ffffffffffffffff8111156103ad576103ac610213565b5b6103b98482850161034b565b91505092915050565b600081519050919050565b7f4e487b7100000000000000000000000000000000000000000000000000000000600052602260045260246000fd5b6000600282049050600182168061041457607f821691505b602082108103610427576104266103cd565b5b50919050565b60008190508160005260206000209050919050565b60006020601f8301049050919050565b600082821b905092915050565b60006008830261048f7fffffffffffffffffffffffffffffffffffffffffffffffffffffffffffffffff82610452565b6104998683610452565b95508019841693508086168417925050509392505050565b6000819050919050565b6000819050919050565b60006104e06104db6104d6846104b1565b6104bb565b6104b1565b9050919050565b6000819050919050565b6104fa836104c5565b61050e610506826104e7565b84845461045f565b825550505050565b600090565b610523610516565b61052e8184846104f1565b505050565b5b818110156105525761054760008261051b565b600181019050610534565b5050565b601f821115610597576105688161042d565b61057184610442565b81016020851015610580578190505b61059461058c85610442565b830182610533565b50505b505050565b600082821c905092915050565b60006105ba6000198460080261059c565b1980831691505092915050565b60006105d383836105a9565b9150826002028217905092915050565b6105ec826103c2565b67ffffffffffffffff81111561060557610604610233565b5b61060f82546103fc565b61061a828285610556565b600060209050601f83116001811461064d576000841561063b578287015190505b61064585826105c7565b8655506106ad565b601f19841661065b8661042d565b60005b828110156106835784890151825560018201915060208501945060208101905061065e565b868310156106a0578489015161069c601f8916826105a9565b8355505b6001600288020188555050505b505050505050565b600082825260208201905092915050565b60006106d1826103c2565b6106db81856106b5565b93506106eb8185602086016102df565b6106f481610222565b840191505092915050565b6000604082019050818103600083015261071981856106c6565b9050818103602083015261072d81846106c6565b90509392505050565b7f4e487b7100000000000000000000000000000000000000000000000000000000600052605160045260246000fd5b61072d806107746000396000f3fe608060405234801561001057600080fd5b50600436106100625760003560e01c806306661abd146100675780632baeceb71461008557806365ac23201461008f578063a87d942c146100ad578063d09de08a146100cb578063d826f88f146100d5575b600080fd5b61006f6100df565b60405161007c919061046a565b60405180910390f35b61008d6100e5565b005b61009761014c565b6040516100a49190610515565b60405180910390f35b6100b56101da565b6040516100c2919061046a565b60405180910390f35b6100d36101e3565b005b6100dd610285565b005b60005481565b60008054111561014a5760016000808282546101019190610566565b925050819055506101496040518060400160405280601b81526020017f436f6e746167656d2064656372656d656e7461646120706172613a00000000008152506000546102ed565b5b565b60018054610159906105c9565b80601f0160208091040260200160405190810160405280929190818152602001828054610185906105c9565b80156101d25780601f106101a7576101008083540402835291602001916101d2565b820191906000526020600020905b8154815290600101906020018083116101b557829003601f168201915b505050505081565b60008054905090565b60016000808282546101f591906105fa565b9250508190555061023d6040518060400160405280601b81526020017f436f6e746167656d20696e6372656d656e7461646120706172613a00000000008152506000546102ed565b600a60005403610283577f28e31ca048d15bcdb5ab3504b7a32d891e5526c8f4cd9ad70fbb604e935fdf503360005460405161027a92919061066f565b60405180910390a15b565b600080819055506102ca6040518060400160405280601081526020017f436f6e746167656d207a65726164612e00000000000000000000000000000000815250610389565b565b60006a636f6e736f6c652e6c6f679050600080835160208501845afa505050565b6103858282604051602401610303929190610698565b6040516020818303038152906040527fb60e72cc000000000000000000000000000000000000000000000000000000007bffffffffffffffffffffffffffffffffffffffffffffffffffffffff19166020820180517bffffffffffffffffffffffffffffffffffffffffffffffffffffffff8381831617835250505050610422565b5050565b61041f8160405160240161039d9190610515565b6040516020818303038152906040527f41304fac000000000000000000000000000000000000000000000000000000007bffffffffffffffffffffffffffffffffffffffffffffffffffffffff19166020820180517bffffffffffffffffffffffffffffffffffffffffffffffffffffffff8381831617835250505050610422565b50565b610439816104316102cc61043c565b63ffffffff16565b50565b610447819050919050565b61044f6106c8565b565b6000819050919050565b61046481610451565b82525050565b600060208201905061047f600083018461045b565b92915050565b600081519050919050565b600082825260208201905092915050565b60005b838110156104bf5780820151818401526020810190506104a4565b60008484015250505050565b6000601f19601f8301169050919050565b60006104e782610485565b6104f18185610490565b93506105018185602086016104a1565b61050a816104cb565b840191505092915050565b6000602082019050818103600083015261052f81846104dc565b905092915050565b7f4e487b7100000000000000000000000000000000000000000000000000000000600052601160045260246000fd5b600061057182610451565b915061057c83610451565b925082820390508181111561059457610593610537565b5b92915050565b7f4e487b7100000000000000000000000000000000000000000000000000000000600052602260045260246000fd5b600060028204905060018216806105e157607f821691505b6020821081036105f4576105f361059a565b5b50919050565b600061060582610451565b915061061083610451565b925082820190508082111561062857610627610537565b5b92915050565b600073ffffffffffffffffffffffffffffffffffffffff82169050919050565b60006106598261062e565b9050919050565b6106698161064e565b82525050565b60006040820190506106846000830185610660565b610691602083018461045b565b9392505050565b600060408201905081810360008301526106b281856104dc565b90506106c1602083018461045b565b9392505050565b7f4e487b7100000000000000000000000000000000000000000000000000000000600052605160045260246000fdfea2646970667358221220b8533030d1a6fd9328e8ad548980750a36b2eb6a5a0c311f11728b8dbf8dbabf64736f6c634300081c0033436f6e747261746f20436f756e74657220696d706c616e7461646f2070656c6f2070726f70726965746172696f3a",
  "linkReferences": {},
  "deployedLinkReferences": {}
}